:020000040800F2
:10000000580B0020A1010008F52B0008512600081C
:10001000F12B0008F5020008552F00080000000031
:10002000000000000000000000000000FB2B0008A2
:100030001903000800000000F92B0008FD2B000840
:10004000BB010008BB010008BB010008BB010008A0
:10005000BB010008BB010008BB010008BB01000890
:10006000BB010008BB010008BB010008BB01000880
:10007000BB010008BB010008BB010008BB01000870
:10008000BB010008BB010008BB010008BB01000860
:10009000BB010008BB010008BB010008BB01000850
:1000A000192C0008BB010008BB010008BB010008B7
:1000B000BB010008BB010008BB010008BB01000830
:1000C000BB010008BB010008BB010008BB01000820
:1000D000BB010008152F0008BB010008BB01000888
:1000E000BB010008BB010008BB010008BB01000800
:1000F000BB010008BB010008BB010008BB010008F0
:10010000BB010008BB010008BB010008BB010008DF
:10011000BB010008BB010008BB010008BB010008CF
:10012000BB010008BB010008F9020008BB01000880
:10013000BB010008BB010008BB010008BB010008AF
:10014000BB010008BB010008BB010008BB0100089F
:10015000BB010008BB01000809030008BB0100083F
:10016000BB010008BB010008BB010008BB0100087F
:10017000BB010008BB010008BB0100080000000033
:10018000BB010008BB010008DFF810D000F0A0F8A8
:1001900000F06EF800480047C14C0008580B0020E2
:1001A0000648804706480047FEE7FEE7FEE7FEE711
:1001B000FEE7FEE7FEE7FEE7FEE7FEE7052C0008A8
:1001C000890100082DE9F05F0546002092469B4614
:1001D00088460646814640241BE02846414647465D
:1001E000224600F064F853465A46C01A914110D393
:1001F00011461846224600F04BF82D1A67EB01080D
:100200004F4622460120002100F042F817EB00097A
:100210004E41201EA4F10104DFDC484631462A4647
:100220004346BDE8F09F40EA01039B0703D009E085
:1002300008C9121F08C0042AFAD203E011F8013BD2
:1002400000F8013B521EF9D27047D2B201E000F82B
:10025000012B491EFBD270470022F6E710B513466A
:100260000A4604461946FFF7F0FF204610BD00007D
:1002700070B5054C054D03E0206820448047241DDF
:10028000AC42F9D170BD0000D8600008DC60000805
:10029000202A04DB203A00FA02F100207047914046
:1002A000C2F1200320FA03F3194390407047202A3B
:1002B00004DB203A21FA02F00021704721FA02F310
:1002C000D040C2F120029140084319467047000017
:1002D000064C074D06E0E06840F0010394E8070093
:1002E00098471034AC42F6D3FFF752FFB8600008CD
:1002F000D860000800BFFEE710B5024800F07AF8A9
:1003000010BD00002406002010B5024800F072F86D
:1003100010BD000084060020704772B600BFFEE7E3
:1003200070B50446A56D00F061FB064694F83500F3
:10033000022808D08020606500BF002084F83400C7
:1003400000BF012070BD2068006820F01600216801
:1003500008602068406920F0800021684861206CB6
:1003600008B9A06C28B12068006820F00800216856
:1003700008602068006820F001002168086010E033
:1003800000F034FB801B05280BD92020606503207A
:1003900084F8350000BF002084F8340000BF03203B
:1003A000D0E72068006800F001000028E8D194F848
:1003B0005C103F208840A860012084F8350000BF11
:1003C000002084F8340000BF00BFBBE7014691F86D
:1003D0003500022803D080204865012070470520A1
:1003E00081F835000868006820F001000A68106094
:1003F0000020F3E7F8B50446002000908C48006820
:100400004FF41651B0FBF1F7A56D2E6894F85C100F
:1004100008208840304098B12068006800F004004F
:1004200070B12068006820F004002168086094F82A
:100430005C1008208840A860606D40F00100606595
:1004400094F85C1001208840304068B12068406911
:1004500000F0800040B194F85C1001208840A86052
:10046000606D40F00200606594F85C1004208840E4
:10047000304068B12068006800F0020040B194F894
:100480005C1004208840A860606D40F00400606546
:1004900094F85C1010208840304078B320680068E1
:1004A00000F0080050B394F85C1010208840A86059
:1004B0002068006800F4802080B12068006800F4A3
:1004C000002028B9206CC8B12046216C884715E06F
:1004D000A06C98B12046A16C88470FE020680068A6
:1004E00000F4807028B92068006820F008002168B6
:1004F0000860206C10B12046216C884794F85C108D
:10050000202088403040002865D02068006800F036
:10051000100000285FD094F85C1020208840A8606C
:1005200094F83500052828D12068006820F01600CE
:10053000216808602068406920F0800021684861D7
:10054000206C08B9A06C28B12068006820F0080071
:100550002168086094F85C103F208840A860012062
:1005600084F8350000BF002084F8340000BF206DFF
:1005700010B12046216D8847F8BD2068006800F45E
:10058000802080B12068006800F4002028B9606CE9
:1005900010B12046616C88471DE0E06BD8B1204661
:1005A000E16B884717E02068006800F4807068B944
:1005B0002068006820F0100021680860012084F89D
:1005C000350000BF002084F8340000BFE06B10B19C
:1005D0002046E16B8847606D38B3606D00F0010024
:1005E000F0B1052084F835002068006820F0010093
:1005F0002168086000BF0098401C0090B84200D9F4
:1006000005E02068006800F001000028F3D100BF79
:10061000012084F8350000BF002084F8340000BFBA
:10062000E06C10B12046E16C884700BFA4E70000F1
:10063000F80000202DE9F0410446002500F0D6F92D
:10064000074614B90120BDE8F081606A00B100BF1F
:10065000022084F8350000BF002084F8340000BF79
:100660002068006820F00100216808600AE000F0BE
:10067000BDF9C01B052805D920206065032084F83A
:100680003500E0E72068006800F001000028EED1A6
:100690002068056821480540D4E901010843E16864
:1006A00008432169084361690843A1690843E16976
:1006B0000843216A08430543606A042803D1D4E94A
:1006C0000B0108430543206805602068456925F053
:1006D0000705606A0543606A04280DD1A06A0543D6
:1006E000E06A48B1204603F003FE28B1402060656F
:1006F000012084F83500A6E720684561204603F014
:100700004DFE064694F85C103F208840B060002003
:100710006065012084F83500002094E73F8010F0E8
:100720002DE9F04704460D4616461F464FF00008D7
:10073000D4F8589000BF94F83400012802D1022068
:10074000BDE8F087012084F8340000BF94F835003C
:10075000012825D1022084F83500002060653B4641
:1007600032462946204603F0ADFD94F85C103F2048
:100770008840C9F808002068006840F01600216829
:100780000860206C28B12068006840F008002168EB
:1007900008602068006840F001002168086006E0F9
:1007A00000BF002084F8340000BF4FF0020840462C
:1007B000C6E7000070B5044600F018F90646254665
:1007C000681C10B104480078054400BF00F00EF921
:1007D000801BA842FAD370BDF4000020F8B5024691
:1007E0000B460025002400200021D6E0012606FA51
:1007F00001F51E6806EA0504AC4274D11E7906F0C4
:100800000306012E04D01E7906F00306022E13D132
:1008100090684F000326BE40B0434F00DE68BE40E4
:1008200030439060506801268E40B0431E79C6F375
:1008300000168E40304350601E7906F00306032EEA
:1008400009D0D0684F000326BE40B0434F009E68D9
:10085000BE403043D0601E7906F00306022E13D14D
:10086000CF0802F1200656F827004E07F70E0F2694
:10087000BE40B0434F07FF0E1E69BE403043CF0855
:1008800002F1200646F8270010684F000326BE40FC
:10089000B0431E7906F003064F00BE40304310609F
:1008A0005E6806F44036002E76D000BF0026009623
:1008B0003C4E366846F480463A4F3E603E463668C7
:1008C00006F48046009600BF00BF374E8F0856F8EA
:1008D00027008E07370F0F26BE40B043334EB2427B
:1008E00002D1002624E057E0314EB24201D1012668
:1008F0001EE0304EB24201D1022619E02E4EB24225
:1009000001D1032614E02D4EB24201D104260FE09E
:100910002B4EB24201D105260AE02A4EB24201D145
:10092000062605E0284EB24201D1072600E008263F
:100930008F073F0FBE4030431B4E8F0846F82700FD
:10094000224E3068A0435E6806F4801606B120434C
:100950001E4E3060361D3068A0435E6806F40016F7
:1009600006B12043194E361D3060184E361F3068D0
:10097000A0435E6806F4003606B12043134E361FCE
:100980003060361F3068A0435E6806F4803606B1DA
:1009900020430E4E083E3060491C1029FFF426AF5C
:1009A000F8BD000044380240083801400000024011
:1009B0000004024000080240000C02400010024007
:1009C0000014024000180240001C0240083C014094
:1009D000024613690B400BB1012000E00020704774
:1009E0000AB1816101E00B0483617047014800682E
:1009F00070470000EC0000200348006803490978B4
:100A00000844014908607047EC000020F400002011
:100A100010B50D48006840F400700B4908600846A6
:100A2000006840F4806008600846006840F4807008
:100A30000860032000F0A2F80F2000F007F800F093
:100A40002BF8002010BD0000003C024070B50446A9
:100A50000E4800784FF47A71B1FBF0F00C49096848
:100A6000B1FBF0F5284600F02BFC08B1012070BD69
:100A7000102C07D200222146501E00F041F80548F4
:100A8000046001E00120F2E70020F0E7F40000201C
:100A9000F8000020F000002008B500BF0020009002
:100AA0000E48006840F480400C4908600846006821
:100AB00000F48040009000BF00BF00BF0020009005
:100AC000081F006840F08050091F08600846006851
:100AD00000F08050009000BF00BF08BD44380240C5
:100AE00001460846002809DB00F01F0301229A4056
:100AF00043099B0003F1E023C3F8002100BF7047C6
:100B00002DE9F05F80460D461646002704F082F876
:100B1000074639462A46334601F00700C0F1070A66
:100B2000BAF1040F02D94FF0040A01E0C0F1070A3C
:100B3000D14600F1040ABAF1070F02D24FF0000AC1
:100B400001E0A0F1030AD4464FF0010A0AFA09FABB
:100B5000AAF1010A0AEA020A0AFA0CFA4FF0010B9A
:100B60000BFA0CFBABF1010B0BEA030B4AEA0B048B
:100B70002146404604F03AF8BDE8F09F00BF00F07F
:100B80000702064B19684FF6FF031940044B0B434D
:100B900043EA0221014B196000BF70470CED00E0F1
:100BA0000000FA0570B504460D460CB9012070BD71
:100BB0005848006800F00700A84209D255490D7056
:100BC0000846006800F00700A84201D00120EEE7C7
:100BD000207800F0020002281DD1207800F00400E7
:100BE000042805D14C48006840F4E0504A490860A8
:100BF000207800F00800082805D14748006840F434
:100C00006040454908604448006820F0F000A16851
:100C1000084341490860207800F00100A8B36068EB
:100C2000012807D13C4808380068C0F34040B8B9F3
:100C30000120BCE76068022802D06068032807D161
:100C4000354808380068C0F3406048B90120AEE775
:100C5000314808380068C0F3400008B90120A6E711
:100C60002D48006820F00300616808432A490860A5
:100C7000FFF7BCFE064609E0FFF7B8FE801B41F215
:100C80008831884202D9032091E707E022480068B2
:100C900000F00C006168B0EB810FEDD11D480068D9
:100CA00000F00700A84209D91A490D7008460068EB
:100CB00000F00700A84201D0012078E7207800F07A
:100CC0000400042807D11448006820F4E050E168CB
:100CD000084311490860207800F00800082808D16E
:100CE0000D48006820F46040216940EAC1000A49CB
:100CF000086000F03FF808490968C1F30311074A8A
:100D0000515CC8400649086006480068FFF79EFE2F
:100D100000204CE7003C024008380240A060000878
:100D2000F8000020F0000020014800687047000033
:100D3000F800002000B5FFF7F7FF04490968C1F388
:100D40008221034A515CC84000BD000008380240BF
:100D5000B060000800B5FFF7E7FF04490968C1F378
:100D60004231034A515CC84000BD000008380240CF
:100D7000B06000082DE9F047002400250026A146B8
:100D80002548006800F00C0020B1042805D0082890
:100D90003AD105E0DFF8849039E0DFF8849036E05E
:100DA0001D48001F006800F03F041B48001F00683A
:100DB00000F4800078B11A481749091F0968C1F387
:100DC0008811A0FB01700146224600233846FFF738
:100DD000F9F905460EE011480F49091F0968C1F3EA
:100DE0008811A0FB01700146224600233846FFF718
:100DF000E9F905460848001F0068C0F30140401C9F
:100E00004600B5FBF6F902E0DFF8109000BF00BF26
:100E10004846BDE8F0870000083802400024F4008E
:100E200000127A00F8B504460CB90120F8BD20780C
:100E300000F00100002874D0F948006800F00C00B0
:100E400004280DD0F648006800F00C00082813D1E3
:100E5000F348001F006800F48000B0F5800F0BD14C
:100E6000EF4808380068C0F34040002859D0606857
:100E7000002856D10120D9E700BF6068B0F5803F57
:100E800008D1E7480838006840F48030E449083960
:100E900008601EE06068B0F5A02F0DD1E04808386A
:100EA000006840F48020DE49083908600846006880
:100EB00040F4803008600CE0D9480838006820F41D
:100EC0008030D749083908600846006820F480203F
:100ED000086000BF606890B1FFF788FD054606E036
:100EE000FFF784FD401B642801D903209EE7CC480E
:100EF00008380068C0F340400028F1D011E0FFF747
:100F000075FD054606E0FFF771FD401B642801D919
:100F100003208BE7C24808380068C0F3404000282F
:100F2000F1D1207800F0020002285FD1BC480068AF
:100F300000F00C0058B1BA48006800F00C00082816
:100F40001CD1B748001F006800F48000B0B9B44855
:100F500008380068C0F3400020B1E068012801D0E3
:100F6000012063E7AE480838006820F0F8002169E6
:100F700040EAC100AA490839086037E0E06800B3D8
:100F80000120A8490860FFF731FD054606E0FFF79C
:100F90002DFD401B022801D9032047E7A04808384F
:100FA0000068C0F340000028F1D09D480838006870
:100FB00020F0F800216940EAC10099490839086029
:100FC00014E0002097490860FFF710FD054606E091
:100FD000FFF70CFD401B022801D9032026E79048AB
:100FE00008380068C0F340000028F1D1207800F0F4
:100FF000080008282CD16069A8B101208A4908603E
:10100000FFF7F4FC054606E0FFF7F0FC401B022862
:1010100001D903200AE782486C300068C0F3400021
:101020000028F1D014E000207F490860FFF7DEFCC3
:10103000054606E0FFF7DAFC401B022801D9032031
:10104000F4E677486C300068C0F340000028F1D126
:10105000207800F00400042870D100277048383050
:10106000006800F0805090B900BF002000906C48EC
:101070003830006840F080506949383108600846CF
:10108000006800F08050009000BF00BF0127674853
:10109000006800F48070B0B96448006840F4807063
:1010A00062490860FFF7A2FC054606E0FFF79EFCD8
:1010B000401B022801D90320B8E65C48006800F410
:1010C00080700028F2D000BFA068012808D15448E1
:1010D0006830006840F001005149683108601DE047
:1010E000A06805280DD14E486830006840F0040023
:1010F0004B49683108600846006840F0010008600C
:101100000CE047486830006820F00100444968312D
:1011100008600846006820F00400086000BFA0686E
:10112000A8B1FFF763FC054609E0FFF75FFC401B31
:1011300041F28831884202D9032077E626E0384818
:1011400068300068C0F340000028EED013E0FFF7DD
:101150004DFC054608E0FFF749FC401B41F2883191
:10116000884201D9032061E62D4868300068C0F349
:1011700040000028EFD1012F07D1294838300068FE
:1011800020F0805026493831086000BFA06900284F
:1011900045D02348006800F00C0008285DD0A06905
:1011A000022845D100201F490866FFF71FFC0546AD
:1011B00006E0FFF71BFC401B022801D9032035E69F
:1011C000174808380068C0F340600028F1D1D4E91E
:1011D00007010843616A40EA81110122A06AC2EB5B
:1011E000500041EA00412C20005D41EA00600C49BA
:1011F000091F086001200B490866FFF7F7FB054649
:1012000006E0FFF7F3FB401B022801D903200DE69F
:10121000034808380068C0F340600028F1D049E076
:101220000838024000004742800E474200700040EC
:10123000002021490866FFF7D9FB054606E0FFF7C5
:10124000D5FB401B022801D90320EFE51B480068AD
:10125000C0F340600028F2D12CE0A069012800D141
:10126000E4E51648001D0668A069012820D006F4B0
:101270008001E06981421BD106F03F01206A814272
:1012800016D147F6C0703040616AB0EB811F0FD1B4
:1012900006F440310122A06AC2EB5000B1EB004FCE
:1012A00006D106F070612C20005DB1EB006F01D01B
:1012B0000120BBE50020B9E50000474200380240AC
:1012C00070B504462546681EB0F1807F01D3012029
:1012D0000FE0681E4FF0E02148610F214FF0FF3012
:1012E00003F084FC00204FF0E021886107200861B2
:1012F000002070BD7047704730B502460B4600BFF6
:1013000092F83C00012801D1022030BD012082F872
:101310003C0000BF022082F83D001068446810685D
:10132000816824F070041868044310684460184D04
:101330001068A8421BD01068B0F1804F17D0154D2F
:101340001068A84213D0144D1068A8420FD0134D56
:101350001068A8420BD0124D1068A84207D0114D5A
:101360001068A84203D0104D1068A84205D121F0A2
:1013700080015868014310688160012082F83D00B7
:1013800000BF002082F83C0000BF00BFBDE70000A6
:10139000000001400004004000080040000C004034
:1013A00000040140004001400018004010B5044610
:1013B0000CB9012010BD94F83D0028B9002084F834
:1013C0003C00204600F026F8022084F83D00211D54
:1013D000206801F029FC012084F8460000BF84F851
:1013E0003E0001213F20015540200155412001557B
:1013F00000BF00BF012084F8420043200155442073
:1014000001554520015500BF012084F83D00002012
:10141000D0E7000010B586B00446142101A8FEF7FD
:101420001BFF4749206888420FD100BF0020009071
:101430004448006840F002004249086008460068DD
:1014400000F00200009000BF78E03F492068884229
:101450000FD100BF002000903A48006840F004001F
:10146000384908600846006800F00400009000BF9A
:1014700064E03649206888420FD100BF0020009008
:101480003048006840F008002E49086008460068AF
:1014900000F00800009000BF50E02D49206888420D
:1014A0000FD100BF002000902648006840F02000C7
:1014B000244908600846006800F02000009000BF42
:1014C0003CE024492068884238D100BF00200090C9
:1014D0001C48001D006840F480301A49091D08604E
:1014E0000846006800F48030009000BF00BF00BFD5
:1014F0000020009013481038006840F001001149A6
:10150000103908600846006800F00100009000BF34
:1015100000BF04200190022002900020039004905C
:101520000320059001A90C48FFF758F90022114645
:101530001820FFF7E5FA1820FFF7D2FA06B010BD21
:10154000000400404038024000080040000C004009
:101550000014004000400140000002402DE9F0412D
:1015600004460D46002700BF94F83C00012802D134
:101570000220BDE8F081012084F83C0000BF022079
:1015800084F83D002068866826F0770626F47F46BA
:10159000206886602868502833D00CDC202850D082
:1015A00004DC00284BD0102851D149E0302849D024
:1015B00040284CD139E060282DD0702807D0B0F5F4
:1015C000805F03D0B0F5005F41D10DE041E0D5E987
:1015D00002136A68206801F0A4FB2068866846F060
:1015E00077062068866034E0D5E902136A682068CF
:1015F00001F097FB2068806840F480402168886093
:1016000027E0EA686968206802F0E0FF502120685E
:1016100002F0D3FF1DE0EA686968206802F0E9FF84
:101620006021206802F0C9FF13E0EA686968206859
:1016300002F0CCFF4021206802F0BFFF09E000BFAC
:1016400000BF00BF2968206802F0B7FF01E0012752
:1016500000BF00BF012084F83D0000BF002084F8D7
:101660003C0000BF384684E710B504461C4920689A
:10167000884234D11B480078012802D002282DD19D
:101680001DE00021184800F0ACFC1849086000BFBC
:1016900015480068006A20F00A00134909680862CA
:1016A00011480068006A40F002000F4909680862AA
:1016B00000BF0C480078401C0A4908700EE0002169
:1016C000094800F08EFC094948600021064800F0F6
:1016D0007BF904480078401C0249087000BF10BD27
:1016E00000400140080000205405002000000020B8
:1016F0002DE9F04104460D461646002700BF94F838
:101700003C00012802D10220BDE8F081012084F8CC
:101710003C0000BF96B9EB68D5E90012206801F0E3
:1017200049FB2068806920F00C00216888612068EE
:101730008069A96808432168886141E0042E13D1BB
:10174000EB68D5E90012206802F0E0FE20688069AD
:1017500020F440602168886120688069A96840EAB7
:101760000120216888612BE0082E12D1EB68D5E9B1
:101770000012206802F0E7FE2068C06920F00C002B
:101780002168C8612068C069A96808432168C861E8
:1017900016E00C2E13D1EB68D5E90012206802F098
:1017A000EEFE2068C06920F440602168C8612068AE
:1017B000C069A96840EA01202168C86100E00127EA
:1017C00000BF002084F83C0000BF38469CE710B5FD
:1017D00004460CB9012010BD94F83D0028B9002042
:1017E00084F83C00204600F025F8022084F83D00F3
:1017F000211D206801F018FA012084F8460000BF7E
:1018000084F83E0001213F20015540200155412030
:10181000015500BF00BF012084F84200432001555C
:10182000442001554520015500BF012084F83D00AA
:101830000020D0E7704700002DE9F04304460D4634
:10184000002615B994F83E000BE0042D02D13F208C
:10185000005D06E0082D02D14020005D01E041203E
:10186000005D804615B994F842000BE0042D02D1CA
:101870004320005D06E0082D02D14420005D01E018
:101880004520005D8146B8F1010F02D1B9F1010F89
:1018900002D00120BDE8F0831DB9022084F83E008B
:1018A0000EE0042D03D102213F20015508E0082D50
:1018B00003D102214020015502E0022141200155BF
:1018C0001DB9022084F842000EE0042D03D102214C
:1018D0004320015508E0082D03D102214420015581
:1018E00002E002214520015535B1042D0BD0082D11
:1018F00010D00C2D1CD114E02068C06840F002000C
:101900002168C86016E02068C06840F004002168C3
:10191000C8600FE02068C06840F008002168C86017
:1019200008E02068C06840F010002168C86001E04D
:10193000012600BF00BF86BB01222946206801F0B6
:10194000DFF91A49206888421BD02068B0F1804F27
:1019500017D017492068884213D01649206888425A
:101960000FD01549206888420BD01449206888425E
:1019700007D013492068884203D012492068884262
:101980000CD12068806800F00707062F0CD0206873
:10199000006840F001002168086005E020680068E8
:1019A00040F0010021680860304673E70000014004
:1019B0000004004000080040000C0040000401400A
:1019C000004001400018004070B504460D46002656
:1019D00035B1042D0BD0082D10D00C2D1CD114E0E6
:1019E0002068C06820F002002168C86016E0206806
:1019F000C06820F004002168C8600FE02068C0685B
:101A000020F008002168C86008E02068C06820F065
:101A100010002168C86001E0012600BF00BF002E51
:101A20003FD100222946206801F06AF900BF2068F2
:101A3000006A41F21111084050B92068006A89100B
:101A4000084028B92068006820F00100216808607B
:101A500000BF1DB9012084F83E000EE0042D03D123
:101A600001213F20015508E0082D03D1012140202C
:101A7000015502E00121412001551DB9012084F8E2
:101A800042000EE0042D03D101214320015508E05E
:101A9000082D03D101214420015502E001214520F8
:101AA0000155304670BD10B5044620680069C0F38A
:101AB0004000D8B12068C068C0F34000B0B16FF0FA
:101AC000020021680861012020772068806900F009
:101AD000030018B12046FFF7C7FD05E0204600F0DF
:101AE00041F9204600F0F5F90020207720680069D0
:101AF000C0F38000D8B12068C068C0F38000B0B1E6
:101B00006FF0040021680861022020772068806956
:101B100000F4407018B12046FFF7A6FD05E020460E
:101B200000F020F9204600F0D4F90020207720684A
:101B30000069C0F3C000D8B12068C068C0F3C0001D
:101B4000B0B16FF008002168086104202077206898
:101B5000C06900F0030018B12046FFF785FD05E0DD
:101B6000204600F0FFF8204600F0B3F9002020776F
:101B700020680069C0F30010D8B12068C068C0F3C5
:101B80000010B0B16FF010002168086108202077C4
:101B90002068C06900F4407018B12046FFF764FD6A
:101BA00005E0204600F0DEF8204600F092F9002023
:101BB00020772068006900F0010058B12068C068F3
:101BC00000F0010030B16FF001002168086120468B
:101BD00000F006FA20680069C0F3C01058B1206810
:101BE000C068C0F3C01030B16FF080002168086198
:101BF0002046FFF77FFB20680069C0F3801058B1D2
:101C00002068C068C0F3801030B16FF040002168D8
:101C10000861204600F0FEF920680069C0F340101A
:101C200058B12068C068C0F3401030B16FF0200098
:101C3000216808612046FFF75EFB10BD10B586B035
:101C40000446142101A8FEF707FB3F49206888429B
:101C500056D100BF002000903C48006840F00100D1
:101C60003A4908600846006800F00100009000BF93
:101C700000BF00BF002000900846006840F002004E
:101C800008600846006800F00200009000BF00BF36
:101C900000BF002000900846006840F00400086083
:101CA0000846006800F00400009000BF00BFC0209C
:101CB00001900220029000200390049002200590E1
:101CC00001A92348FEF78AFD01200190022002901D
:101CD0000020039004900220059001A91D48FEF702
:101CE0007DFD4FF4007001900220029000200390CF
:101CF00004900220059001A91748FEF76FFD21E02E
:101D00001649206888421DD100BF002000900F486E
:101D1000006840F008000D4908600846006800F0BF
:101D20000800009000BF00BF4FF440500190022017
:101D300002900020039004900220059001A9084819
:101D4000FEF74CFD06B010BD0004004030380240E4
:101D50000000024000040240000802400008004069
:101D6000000C024070472DE9F04104460D4616462E
:101D7000002700BF94F83C00012802D10220BDE8F2
:101D8000F081012084F83C0000BF36B1042E1BD046
:101D9000082E31D00C2E5ED145E02946206802F095
:101DA00017FB2068806940F008002168886120687E
:101DB000806920F0040021688861206880692969B1
:101DC00008432168886148E02946206800F0B4FF94
:101DD0002068806940F4006021688861206880691B
:101DE00020F480602168886120688069296940EA60
:101DF00001202168886130E02946206802F020FB3C
:101E00002068C06940F008002168C8612068C06986
:101E100020F004002168C8612068C069296908436E
:101E20002168C86119E02946206802F045FB206856
:101E3000C06940F400602168C8612068C06920F46E
:101E400080602168C8612068C069296940EA012072
:101E50002168C86101E0012700BF00BF00BF00206A
:101E600084F83C0000BF384689E710B504460CB939
:101E7000012010BD94F83D0028B9002084F83C00F2
:101E8000204600F025F8022084F83D00211D20683E
:101E900000F0CAFE012084F8460000BF84F83E002E
:101EA00001213F200155402001554120015500BF2F
:101EB00000BF012084F84200432001554420015511
:101EC0004520015500BF012084F83D000020D0E7E7
:101ED0007047704770B504460D4615B994F83E003A
:101EE0000BE0042D02D13F20005D06E0082D02D159
:101EF0004020005D01E04120005D012801D001206B
:101F000070BD1DB9022084F83E000EE0042D03D1FF
:101F100002213F20015508E0082D03D10221402075
:101F2000015502E002214120015501222946206885
:101F300000F0E6FE23492068884203D02249206849
:101F4000884201D1012000E0002028B12068406CC7
:101F500040F40040216848641A49206888421BD038
:101F60002068B0F1804F17D018492068884213D0FC
:101F70001749206888420FD01649206888420BD044
:101F800011492068884207D013492068884203D04D
:101F90001249206888420CD12068806800F007064A
:101FA000062E0CD02068006840F00100216808600F
:101FB00005E02068006840F001002168086000200A
:101FC0009EE70000000001400004014000040040C2
:101FD00000080040000C0040004001400018004094
:101FE00070470246002031B1042907D0082908D0E3
:101FF0000C290CD108E01368586B09E01368986B42
:1020000006E01368D86B03E01368186C00E000BFAB
:1020100000BF704770477047704700002DE9F84FC8
:102020000446206805682068C668206847694FF044
:102030000009CA4605F00F09B9F1000F0AD105F0F1
:10204000200038B106F0200020B1204602F024FC28
:10205000BDE8F88FB9F1000F7CD007F0010018B986
:1020600006F49070002875D005F0010030B106F438
:10207000807018B1206C40F00100206405F004006D
:1020800030B107F0010018B1206C40F0020020646C
:1020900005F0020030B107F0010018B1206C40F0EB
:1020A0000400206405F0080048B106F0200010B9D3
:1020B00007F0010018B1206C40F008002064206C8B
:1020C000002846D005F0200028B106F0200010B10D
:1020D000204602F0E1FB20684069C0F3801A206CC2
:1020E00000F0080010B9BAF1000F2DD0204602F020
:1020F00096FC2068406900F04000402820D100BFD5
:1021000000BF2168143151E8001F21F04000216810
:10211000143141E80002002AF3D100BFA06B50B196
:102120007548A16B0865A06BFEF750F988B1A06BEC
:10213000016D88470DE02046FFF76EFF09E009E0DA
:102140002046FFF769FF04E02046FFF765FF002007
:1021500020647DE7206B012876D105F0100000286F
:1021600072D006F010000028FAD000BF00200090C6
:1021700020680068009020684068009000BF00BFA1
:102180002068406900F0400040285ED1A06B0068E4
:1021900040681FFA80F8B8F1000F54D0A08D404578
:1021A00051DDA4F82E80A06BC069B0F5807F43D0CC
:1021B00000BF00BF21680C3151E8001F21F480707E
:1021C00021680C3141E80002002AF3D100BF00BFB2
:1021D00000BF2168143151E8001F21F0010021687F
:1021E000143141E80002002AF3D100BF00BF00BF54
:1021F0002168143151E8001F21F04000216814319A
:1022000041E80002002AF3D100BF202084F83E00FC
:102210000020206300BF00BF21680C3151E8001F7F
:1022200021F0100021680C3141E80002002AF3D1AE
:1022300000BFA06BFEF774F8A08DE28D801A81B20A
:102240002046FFF7E8FE03E740E0A08DE18D401A4D
:102250001FFA80F8E08DC0B3B8F1000F35D000BF91
:1022600000BF21680C3151E8001F21F490702168F3
:102270000C3141E80002002AF3D100BF00BF00BFCB
:102280002168143151E8001F21F001002168143148
:1022900041E80002002AF3D100BF202084F83E006C
:1022A0000020206300BF00BF21680C3151E8001FEF
:1022B00021F0100021680C3141E80002002AF3D11E
:1022C00000BF41462046FFF7A6FEC1E605F08000AC
:1022D00030B106F0800018B1204602F059FBB7E695
:1022E00005F0400030B106F0400018B1204602F081
:1022F00037FCADE600BFABE6814B000810B50446E5
:102300000CB9012010BDA06900B100E000BF94F835
:102310003D0028B9002084F83C00204600F028F851
:10232000242084F83D002068C06820F40050216813
:10233000C860204602F09AF92068006920F49040B5
:10234000216808612068406920F02A0021684861FE
:102350002068C06840F400502168C86000202064F4
:10236000202084F83D0084F83E000020CAE70000E9
:1023700010B586B00446142101A8FDF76DFF6E4923
:10238000206888427ED100BF002000906B48006822
:1023900040F01000694908600846006800F010002D
:1023A000009000BF00BF00BF0020009063481438B9
:1023B000006840F00100614914390860084600686F
:1023C00000F00100009000BF00BF4FF4C06001901A
:1023D0000220029000200390032004900720059023
:1023E00001A95748FEF7FAF95648574908604FF0D7
:1023F00000604860002154488160C1604FF48061F2
:102400000161002141618161C16101620421416278
:10241000032181620021C1620163FEF70BF908B15B
:10242000FDF77BFF00BF4848A063846300BF4548B9
:102430007830464908604FF00060486040214348CA
:1024400081600021C1604FF4806101610021416120
:102450008161C16101620421416203218162002125
:10246000C1620163FEF7E6F808B1FDF756FF00BF51
:1024700036486063846300BF002211462520FEF7C2
:102480003FFB00E003E02520FEF72AFB52E0304945
:10249000206888424ED100BF002000902748001FCE
:1024A000006840F400302549091F086008460068AC
:1024B00000F40030009000BF00BF00BF002000907B
:1024C0001E481438006840F001001C4914390860A7
:1024D0000846006800F00100009000BF00BF00BF88
:1024E000002000900846006840F008000860084698
:1024F000006800F00800009000BF00BF08200190B5
:1025000002200290002003900320049007200590F1
:1025100001A90B48FEF762F92020019002200290E9
:1025200000200390032004900720059001A909488A
:10253000FEF754F906B010BD0010014044380240C7
:10254000000002404064024024060020840600206F
:1025500000440040000C024070B504460D4616468B
:1025600094F83E00202816D105B10EB9012070BDA7
:1025700000BF94F83C00012801D10220F7E70120B8
:1025800084F83C0000BF00202063324629462046E4
:1025900000F058FCEBE70220E9E7704770470000C5
:1025A000F7B50446154694F83D00202846D1019819
:1025B00000B10DB90120FEBD00BF94F83C00012818
:1025C00001D10220F7E7012084F83C0000BF019808
:1025D0002062A584E58400202064212084F83D0049
:1025E0001748616BC8631748616B08641648616BD4
:1025F000C8640020616B086501AE23681A1D31684C
:102600002B46606BFEF78CF86FF040002168086085
:1026100000BF002084F83C0000BF00BF00BF21685D
:10262000143151E8001F41F080002168143141E865
:102630000002002AF3D100BF0020BCE70220BAE765
:10264000954B0008114A00081B4600087047704768
:1026500000BFFEE708B500BF002000900E480068EC
:1026600040F480000C4908600846006800F48000CF
:10267000009000BF00BF002211463A20FEF740FA4A
:102680003A20FEF72DFA002211464620FEF738FACE
:102690004620FEF725FA08BD3038024000B587B065
:1026A000142102A8FDF7D8FD00BF002001907B484F
:1026B000006840F01000794908600846006800F0A2
:1026C0001000019000BF00BF00BF0020019008462D
:1026D000006840F0200008600846006800F0200014
:1026E000019000BF00BF00BF0020019008460068B5
:1026F00040F0800008600846006800F0800001900B
:1027000000BF00BF00BF002001900846006840F0F5
:10271000040008600846006800F00400019000BF53
:1027200000BF00BF002001900846006840F0010093
:1027300008600846006800F00100019000BF00BF7B
:1027400000BF002001900846006840F002000860C9
:102750000846006800F00200019000BF00BF00BF03
:10276000002001900846006840F0400008600846DC
:10277000006800F04000019000BF00BF00BF0020D3
:1027800001900846006840F00800086008460068AC
:1027900000F00800019000BF00BF00223021404837
:1027A000FEF71EF900224FF4D8713E48FEF718F9E3
:1027B00000224FF483713C48FEF712F900224FF4D7
:1027C00070513A48FEF70CF900224FF47061384816
:1027D000FEF706F97F20029000200390049002A9E2
:1027E0003248FDF7FBFF40F2FF20029000200390EB
:1027F000049002A92F48FDF7F1FF0F20029000205E
:102800000390049002A92748FDF7E8FF30200290CA
:102810000120039000200490059002A92048FDF7B4
:10282000DDFF4FF4D8700290012003900020049047
:10283000059002A91B48FDF7D1FF4FF48370029069
:102840000120039000200490059002A91648FDF78E
:10285000C5FF1E2002904FF48810039000200490C2
:1028600002A91548FDF7BAFF4FF4705002900120FD
:10287000039000200490059002A90C48FDF7AEFFDC
:102880004FF47060029001200390002004900590A6
:1028900002A90748FDF7A2FF07B000BD303802408B
:1028A0000000024000080240000402400010024004
:1028B000000C0240001402400018024000B58DB028
:1028C000002009900A900B900C90079008901C2112
:1028D0006846FDF7C1FC2C482C4908600020486080
:1028E00000212A48816048F6A151C16000210161A0
:1028F0008161FEF75BFD08B1FDF70FFD4FF48050DD
:10290000099009A92148FEF729FE08B1FDF705FD48
:102910001E48FFF7AAFA08B1FDF7FFFC0020079058
:10292000089007A91948FEF7E7FC08B1FDF7F5FC88
:1029300060200090002001900290049000226946DF
:102940001248FFF710FA08B1FDF7E7FC04226946C8
:102950000E48FFF708FA08B1FDF7DFFC08226946C8
:102960000A48FFF700FA08B1FDF7D7FC0C226946C8
:102970000648FFF7F8F908B1FDF7CFFC0348FFF769
:102980005DF90DB000BD00000004004034040020DB
:1029900000B58DB0002009900A900B900C90079024
:1029A00008901C216846FDF757FC2448244908601C
:1029B000A720486000212248816040F2CF71C160A9
:1029C000002101618161FEF7F1FC08B1FDF7A5FC72
:1029D0004FF48050099009A91948FEF7BFFD08B1CE
:1029E000FDF79BFC1648FFF740FA08B1FDF795FC90
:1029F00000200790089007A91148FEF77DFC08B158
:102A0000FDF78BFC60200090002001900290049064
:102A1000002269460A48FFF7A6F908B1FDF77DFCD8
:102A2000042269460648FFF79EF908B1FDF775FCD8
:102A30000348FFF703F90DB000BD00000008004097
:102A40007C04002000B587B000200390049005901E
:102A500006900190029014481449086000204860D4
:102A600000211248816047F6FF71C16000210161B9
:102A70008161FEF79BFC08B1FDF74FFC4FF48050DD
:102A8000039003A90948FEF769FD08B1FDF745FC6D
:102A900000200190029001A90448FEF72DFC08B126
:102AA000FDF73BFC07B000BD000C0040C404002053
:102AB0001CB50020009001900D480E49086053207D
:102AC000486000210B4881600121C16000218161C3
:102AD000FEF76CFC08B1FDF720FC0020009001908F
:102AE00069460448FEF708FC08B1FDF716FC1CBD5A
:102AF000001400400C05002000B589B000200590AE
:102B000006900790089001900290039004901A4854
:102B10001A490860532048600021184881604FF628
:102B2000FF71C1600021016180218161FEF73EFCDF
:102B300008B1FDF7F2FB4FF48050059005A90F484E
:102B4000FEF70CFD08B1FDF7E8FB0C48FEF73FFE71
:102B500008B1FDF7E2FB0020019001200290002067
:102B600003900490002201A90448FEF7C1FD08B1BA
:102B7000FDF7D3FB09B000BD004001405405002023
:102B800010B50B480B4908604FF4165048600021FF
:102B900008488160C16001610C21416100218161AF
:102BA000C161FFF7ABFB08B1FDF7B7FB10BD00003B
:102BB000001001409C05002010B50B480B4908602F
:102BC0004FF4E1304860002108488160C160016134
:102BD0000C21416100218161C161FFF78FFB08B1C8
:102BE000FDF79BFB10BD000000440040E005002005
:102BF00000BFFEE700BFFEE77047704710B5FDF766
:102C0000FBFE10BD0348006840F4700001490860F5
:102C10007047000088ED00E010B50248FEF743FF62
:102C200010BD00005405002010B50268294B9842E1
:102C30000ED0B0F1804F0BD0274B984208D0274BD5
:102C4000984205D0264B984202D0264B984203D199
:102C500022F070024B681A431E4B984220D0B0F10C
:102C6000804F1DD01C4B98421AD01C4B984217D055
:102C70001B4B984214D01B4B984211D01A4B9842D0
:102C80000ED01A4B98420BD0194B984208D0194BD2
:102C9000984205D0184B984202D0184B984203D165
:102CA00022F44072CB681A4322F080034C6943EA55
:102CB000040202608B68C3620B688362054B984212
:102CC00002D0084B984201D10B6903630123436191
:102CD00010BD00000000014000040040000800405A
:102CE000000C00400004014000400140004401404D
:102CF0000048014000180040001C00400020004037
:102D000030B501F01F05012404FA05F3046A9C4361
:102D10000462046A01F01F0502FA05F52C430462FF
:102D200030BD30B50C46816821F47F4142EA03256D
:102D300025432943816030BD30B5056A25F0100573
:102D40000562026A4368846924F4E04424F4407410
:102D50000D6844EA052422F020028D6842EA05123B
:102D6000124DA84200D103E0114DA84207D100BF87
:102D700022F08002CD6842EA051222F040020B4D9B
:102D8000A84202D00A4DA84209D123F4806323F45B
:102D900000634D6943EA85038D6943EA8503436017
:102DA00084614D688563026230BD0000000001400F
:102DB0000004014070B50C461546066A26F001066F
:102DC00006628169026A184EB04214D0B0F1804F99
:102DD00011D0164EB0420ED0154EB0420BD0154E4B
:102DE000B04208D0144EB04205D0144EB04202D0CA
:102DF000134EB04201D1012600E000261EB121F0A1
:102E00000301294301E041F0010121F0F001F02626
:102E100006EA0316314322F00A0204F00A0632439E
:102E20008161026270BD00000000014000040040AA
:102E300000080040000C0040000401400040014038
:102E40000018004077B581B0044615460298A0628C
:102E5000A58500202064222084F83E002A48A16B2A
:102E6000C8632A48A16B08642948A16BC864002084
:102E7000A16B086502AE32682368191D2B46A06B52
:102E8000FDF74EFC00BF0020009020680068009015
:102E900020684068009000BF00BF00BF002084F899
:102EA0003C0000BF206970B100BF00BF21680C3139
:102EB00051E8001F41F4807021680C3141E80002A4
:102EC000002AF3D100BF00BF00BF2168143151E8D0
:102ED000001F41F001002168143141E80002002A7E
:102EE000F3D100BF00BF00BF2168143151E8001FBB
:102EF00041F040002168143141E80002002AF3D17A
:102F000000BF002004B070BDB14A0008F1490008BC
:102F10001B46000810B50C48FFF780F802220B4949
:102F20000948FFF719FB09484078312803D10120EF
:102F30000749086006E005484078302802D10020A3
:102F40000349086010BD00009C050020E406002035
:102F50001400002000BFFEE770B50125012400F039
:102F600075F90EE04D4890ED021AD0ED010A90ED92
:102F7000000A4B4800F0A8FC0A20FDF71BFC00F0FB
:102F800065F9484840684749896808444549C9681F
:102F900008444449096908440128E3DD2CE000F0B5
:102FA00055F9414840684049896808443E49C96824
:102FB00008443D4909690844022801DD00251FE055
:102FC0003A4840683949896808443849C96808441A
:102FD000364909690844022801DD002410E02F4821
:102FE00090ED021AD0ED010A90ED000A2C4800F095
:102FF0006BFC0A20FDF7DEFB002DD0D1002CCED1DA
:1030000000BFE5B90EE02A4890ED021AD0ED010AA2
:1030100090ED000A224800F057FC1420FDF7CAFB8F
:1030200000F014F9214840682049896808441F4984
:10303000C96808441D49096908440128E3DDE4B969
:103040000EE01C4890ED021AD0ED010A90ED000A46
:10305000134800F039FC1420FDF7ACFB00F0F6F843
:10306000114840681049896808440F49C9680844F4
:103070000D49096908440128E3DD0F4890ED021A63
:10308000D0ED010A90ED000A054800F01DFC4FF458
:103090007A70FDF78FFB9FED090B70BD3C0000209F
:1030A000FC000020180700202C070020400700200B
:1030B0008400002078000020F806002000000000B6
:1030C0000000F03F10B500F0C1F82A484068012820
:1030D00011D12848006901280DD1274890ED021A26
:1030E000D0ED010A90ED000A244800F0EDFB0A2023
:1030F000FDF760FB3CE01F48406880B91D4800694F
:1031000068B91D4890ED021AD0ED010A90ED000A51
:103110001A4800F0D9FB0A20FDF74CFB28E01548BF
:103120004068012810D11348006968B9144890ED2F
:10313000021AD0ED010A90ED000A104800F0C4FB1D
:103140000A20FDF737FB13E00A48406880B90948B8
:10315000006901280CD10B4890ED021AD0ED010A4C
:1031600090ED000A054800F0AFFB0A20FDF722FBB6
:1031700010BD00004007002048000020FC00002097
:103180009C0000209000002010B500F05FF82A4855
:103190004068012811D12848006901280DD127482D
:1031A00090ED021AD0ED010A90ED000A244800F0DB
:1031B0008BFB0A20FDF7FEFA3CE01F48406880B90F
:1031C0001D48006968B91D4890ED021AD0ED010A4A
:1031D00090ED000A1A4800F077FB0A20FDF7EAFAA2
:1031E00028E015484068012810D11348006968B9E3
:1031F000144890ED021AD0ED010A90ED000A104833
:1032000000F062FB0A20FDF7D5FA13E00A48406897
:1032100080B90948006901280CD10B4890ED021AC9
:10322000D0ED010A90ED000A054800F04DFB0A20A0
:10323000FDF7C0FA10BD00002C0700206000002040
:10324000FC000020A8000020B400002010B50121DF
:103250004048FDF7BDFBC0F101003F4988600221F5
:103260003C48FDF7B5FBC0F101003B494860042133
:103270003848FDF7ADFBC0F101003749C8600821AF
:103280003448FDF7A5FBC0F1010033490861102166
:103290003048FDF79DFBC0F10100304988602021D6
:1032A0002C48FDF795FBC0F101002C4948604021F6
:1032B0002848FDF78DFBC0F101002849C8600121B5
:1032C0002748FDF785FBC0F1010024490861022170
:1032D0002348FDF77DFBC0F10100224988600421ED
:1032E0001F48FDF775FBC0F101001E494860082129
:1032F0001B48FDF76DFBC0F101001A49C8601021A1
:103300001748FDF765FBC0F101001649086120214F
:103310001348FDF75DFBC0F10100134988604021AF
:103320000F48FDF755FBC0F101000F4948608021AF
:103330000B48FDF74DFBC0F101000B49C8604FF48D
:1033400080710748FDF744FBC0F1010006490861A0
:1033500010BD0000001002400407002018070020E4
:10336000001402402C0700204007002010B5FFF792
:103370006DFF01E0FFF708FF0748406806498968CC
:1033800008440549C96808440349096908440128F3
:10339000F0DC012010BD00002C07002010B5FFF765
:1033A00055FF0EE0194890ED021AD0ED010A90ED9C
:1033B000000A174800F088FA0A20FDF7FBF9FFF72A
:1033C00045FF144840681349896808441149C96891
:1033D000084410490969084401280CDC0E4840687B
:1033E0000D49896808440C49C96808440A490969B3
:1033F00008440128D6DD094890ED021AD0ED010AF3
:1034000090ED000A024800F05FFA10BD780000203D
:10341000FC000020040700202C070020F8060020F4
:1034200000B593B0302107A8FCF716FF142102A8BD
:10343000FCF712FF00BF002001902448006840F014
:103440008050224908600846006800F080500190D2
:1034500000BF00BF00BF002001901D48006840F47D
:1034600080401B4908600846006800F480400190D5
:1034700000BF00BF012007900004089002200D90BB
:1034800041050E9104210F91A82110910221119163
:103490000421129107A8FDF7C5FC08B1FCF73DFF18
:1034A0000F20029002200390002004904FF4A050BF
:1034B00005904FF480500690052102A8FDF772FB9D
:1034C00008B1FCF72AFF13B000BD000040380240ED
:1034D0000070004070B504460025FFF747FF1A480A
:1034E00090ED021AD0ED010A90ED000A174800F0A5
:1034F000EBF940F28A20FDF75DF9154890ED021ACC
:10350000D0ED010A90ED000A104800F0DDF92046E8
:10351000FDF750F9FFF720FD0D4890ED021AD0EDB0
:10352000010A90ED000A094800F0CEF96420FDF789
:1035300041F9084890ED021AD0ED010A90ED000A19
:10354000024800F0C1F970BD84000020FC0000209A
:1035500030000020F806002010B50124FFF776FEA9
:103560001DE0154890ED021AD0ED010A90ED000A19
:10357000124800F0A9F91420FDF71CF91048406822
:1035800058B90F48006940B90D488068012804D136
:103590000B48C068012800D10024FFF757FE012C1A
:1035A000DFD0084890ED021AD0ED010A90ED000A34
:1035B000024800F089F910BDD8000020FC0000206E
:1035C00040070020F806002031B52DED040B04461D
:1035D000DFED120A9FED120A02A802F099FC9DEDA0
:1035E000020ABDEEC00A10EE101A204600F044F99F
:1035F000204600F0EEF89DED020AB1EE400ABDEE65
:10360000C00A10EE101A04F1680000F035F904F158
:10361000680000F0DEF805B030BD000000409C46B8
:1036200000409CC610B5A6B004463D22444914A8EB
:10363000FCF7F9FD424890F83D008DF88D004048B8
:1036400090F83E008DF88E003D4890F83F108DF8C0
:103650008F1090F840108DF8901090F841108DF870
:10366000911090F842008DF89200354890F8431080
:103670008DF8931090F844108DF8941090F8451040
:103680008DF8951090F846008DF896002D4801159C
:10369000C314CDE91030CDE9121000203C2217A947
:1036A0000F906846FCF7BFFD204614A90EC900F034
:1036B0004BF83D22224914A8FCF7B5FD204890F8AC
:1036C0003D008DF88D001E4890F83E008DF88E006C
:1036D0001B4890F83F108DF88F1090F840108DF82F
:1036E000901090F841108DF8911090F842008DF8EC
:1036F0009200134890F843108DF8931090F84410FE
:103700008DF8941090F845108DF8951090F84600BB
:103710008DF896000B4881154315CDE91030CDE9A1
:10372000121004203C2217A90F906846FCF77BFD7D
:1037300004F1680014A90EC900F006F826B010BD07
:103740007C040020000C02400FB42DE9F047044631
:103750001BAD95E8E0033D2209A92046FCF763FD77
:103760009DF8610084F83D009DF8620084F83E00F9
:103770009DF863103F2001559DF8641040200155CD
:103780009DF86510412001559DF8660084F84200BF
:103790009DF86710432001559DF86810442001559D
:1037A0009DF86910452001559DF86A0084F846008F
:1037B00084F84850A4F84A60E764A4F85080C4F83C
:1037C0005490294609A8FEF785FBBDE8F0075DF88F
:1037D00014FB10B50446606E60B9B4F84A100022BC
:1037E000E06CFDF7FDF8B4F850100022606DFDF7B5
:1037F000F7F81EE0606E00280CDDB4F84A100122D4
:10380000E06CFDF7EDF8B4F850100022606DFDF7A4
:10381000E7F80EE0606E00280BDAB4F84A100022D8
:10382000E06CFDF7DDF8B4F850100122606DFDF793
:10383000D7F894F8480028B9606E02F07DFB216843
:10384000486318E094F84800042805D1606E02F03F
:1038500073FB216888630EE094F84800082805D1BE
:10386000606E02F069FB2168C86304E0606E02F0DC
:1038700063FB2168086410BD41667047002180F831
:1038800058109FED050A80ED170A47F6FF71016693
:103890000021416670470000852C9F4170B50446A9
:1038A0000D46012D05D1218801226068FDF798F8A9
:1038B00005E025B9218800226068FDF791F870BD08
:1038C000028041607047000031B52DED040B0446C5
:1038D000DFEDFE0A9FEDFE0A684602F019FBDFED00
:1038E000FB0A9FEDFB0A01A802F012FBDFEDF90ACB
:1038F0009FEDF90A02A802F00BFB9DED000AB5EE60
:10390000C00AF1EE10FA48D19DED010AB5EEC00AE9
:10391000F1EE10FA41DD9DED020AB5EEC00AF1EEBE
:1039200010FA3AD19DED010AB1EE400ABDEEC00A8F
:1039300010EE101A2046FFF79FFF2046FFF749FFC1
:103940009DED010AB1EE400ABDEEC00A10EE101A5C
:1039500004F1D000FFF790FF04F1D000FFF739FF2A
:103960009DED010ABDEEC00A10EE101A04F16800C8
:10397000FFF782FF04F16800FFF72BFF9DED010ABE
:10398000BDEEC00A10EE101A04F59C70FFF774FF2C
:1039900004F59C70FFF71DFF71E39DED000AB5EE85
:1039A000C00AF1EE10FA48D19DED010AB5EEC00A49
:1039B000F1EE10FA41D29DED020AB5EEC00AF1EE29
:1039C00010FA3AD19DED010AB1EE400ABDEEC00AEF
:1039D00010EE101A2046FFF74FFF2046FFF7F9FEC2
:1039E0009DED010AB1EE400ABDEEC00A10EE101ABC
:1039F00004F1D000FFF740FF04F1D000FFF7E9FE2B
:103A00009DED010ABDEEC00A10EE101A04F1680027
:103A1000FFF732FF04F16800FFF7DBFE9DED010ABE
:103A2000BDEEC00A10EE101A04F59C70FFF724FFDB
:103A300004F59C70FFF7CDFE21E39DED000AB5EE85
:103A4000C00AF1EE10FA48D29DED010AB5EEC00AA7
:103A5000F1EE10FA41D19DED020AB5EEC00AF1EE89
:103A600010FA3AD19DED000ABDEEC00A10EE101A10
:103A70002046FFF701FF2046FFF7ABFE9DED000A51
:103A8000B1EE400ABDEEC00A10EE101A04F1D000EB
:103A9000FFF7F2FE04F1D000FFF79BFE9DED000A58
:103AA000BDEEC00A10EE101A04F16800FFF7E4FE44
:103AB00004F16800FFF78DFE9DED000AB1EE400AAB
:103AC000BDEEC00A10EE101A04F59C70FFF7D4FE8C
:103AD00004F59C70FFF77DFED1E29DED000AB5EE86
:103AE000C00AF1EE10FA48DD9DED010AB5EEC00AFC
:103AF000F1EE10FA41D19DED020AB5EEC00AF1EEE9
:103B000010FA3AD19DED000ABDEEC00A10EE101A6F
:103B10002046FFF7B1FE2046FFF75BFE9DED000A51
:103B2000B1EE400ABDEEC00A10EE101A04F1D0004A
:103B3000FFF7A2FE04F1D000FFF74BFE9DED000A57
:103B4000BDEEC00A10EE101A04F16800FFF794FEF3
:103B500004F16800FFF73DFE9DED000AB1EE400A5A
:103B6000BDEEC00A10EE101A04F59C70FFF784FE3B
:103B700004F59C70FFF72DFE81E29DED000AB5EE85
:103B8000C00AF1EE10FA4CD19DED010AB5EEC00A63
:103B9000F1EE10FA45D19DED020AB5EEC00AF1EE44
:103BA00010FA3EDD9DED020AB1EE400ABDEEC00AFC
:103BB00010EE101A2046FFF75FFE2046FFF709FEC1
:103BC0009DED020AB1EE400ABDEEC00A10EE101AD9
:103BD00004F1D000FFF750FE04F1D000FFF7F9FD2B
:103BE0009DED020AB1EE400ABDEEC00A10EE101AB9
:103BF00004F16800FFF740FE04F16800FFF7E9FDFB
:103C00009DED020AB1EE400ABDEEC00A10EE101A98
:103C100004F59C70FFF730FE04F59C70FFF7D9FDAA
:103C20002DE29DED000AB5EEC00AF1EE10FA55D175
:103C30009DED010AB5EEC00AF1EE10FA4ED19DEDF0
:103C4000020AB5EEC00AF1EE10FA47D29DED020A63
:103C5000B1EE400ABDEEC00A10EE101A2046FFF782
:103C60000BFE2046FFF7B5FD9DED020AB1EE400ABE
:103C7000BDEEC00A10EE101A04F1D000FFF7FCFDF3
:103C800004F1D000FFF7A5FD9DED020AB1EE400A58
:103C9000BDEEC00A10EE101A04F16800FFF7ECFD4B
:103CA00004F16800FFF795FD9DED020AB1EE400AB0
:103CB000BDEEC00A10EE101A04F59C70FFF7DCFD93
:103CC00004F59C70FFF785FDD9E1000000401C461B
:103CD00000401CC600409C4600409CC69DED000A6A
:103CE000B5EEC00AF1EE10FA3CDD9DED010AB5EE2D
:103CF000C00AF1EE10FA35DD9DED020AB5EEC00AFC
:103D0000F1EE10FA2ED100212046FFF7B5FD204636
:103D1000FFF75FFD9DED000AB1EE400ABDEEC00A5F
:103D200010EE101A04F1D000FFF7A6FD04F1D00048
:103D3000FFF74FFD9DED000ABDEEC00A10EE101A10
:103D400004F16800FFF798FD04F16800FFF741FDFA
:103D5000002104F59C70FFF78FFD04F59C70FFF7C0
:103D600038FD8CE19DED000AB5EEC00AF1EE10FAC7
:103D70003CDD9DED010AB5EEC00AF1EE10FA35D238
:103D80009DED020AB5EEC00AF1EE10FA2ED19DEDBE
:103D9000000ABDEEC00A10EE101A2046FFF76CFDB7
:103DA0002046FFF716FD002104F1D000FFF764FD67
:103DB00004F1D000FFF70DFD002104F16800FFF7CA
:103DC0005BFD04F16800FFF704FD9DED000AB1EE14
:103DD000400ABDEEC00A10EE101A04F59C70FFF701
:103DE0004BFD04F59C70FFF7F4FC48E19DED000AE3
:103DF000B5EEC00AF1EE10FA3CD29DED010AB5EE27
:103E0000C00AF1EE10FA35DD9DED020AB5EEC00AEA
:103E1000F1EE10FA2ED19DED000ABDEEC00A10EEB3
:103E2000101A2046FFF728FD2046FFF7D2FC00219C
:103E300004F1D000FFF720FD04F1D000FFF7C9FC2A
:103E4000002104F16800FFF717FD04F16800FFF797
:103E5000C0FC9DED000AB1EE400ABDEEC00A10EEB6
:103E6000101A04F59C70FFF707FD04F59C70FFF72E
:103E7000B0FC04E19DED000AB5EEC00AF1EE10FAC7
:103E80003CD29DED010AB5EEC00AF1EE10FA35D232
:103E90009DED020AB5EEC00AF1EE10FA2ED1002116
:103EA0002046FFF7E9FC2046FFF793FC9DED000A52
:103EB000B1EE400ABDEEC00A10EE101A04F1D000B7
:103EC000FFF7DAFC04F1D000FFF783FC9DED000A58
:103ED000BDEEC00A10EE101A04F16800FFF7CCFC2A
:103EE00004F16800FFF775FC002104F59C70FFF7F2
:103EF000C3FC04F59C70FFF76CFCC0E09DED000A6C
:103F0000B5EEC00AF1EE10FA3EDD9DED010AB5EE08
:103F1000C00AF1EE10FA37DD9DED020AB5EEC00AD7
:103F2000F1EE10FA30DD00212046FFF7A5FC204617
:103F3000FFF74FFC002104F1D000FFF79DFC04F1D6
:103F4000D000FFF746FC9DED020AB1EE400ABDEE3F
:103F5000C00A10EE101A04F16800FFF78DFC04F19E
:103F60006800FFF736FC9DED020AB1EE400ABDEE97
:103F7000C00A10EE101A04F59C70FFF77DFC04F5E2
:103F80009C70FFF726FC7AE09DED000AB5EEC00AB2
:103F9000F1EE10FA3CDD9DED010AB5EEC00AF1EE3E
:103FA00010FA35DD9DED020AB5EEC00AF1EE10FA09
:103FB0002ED200212046FFF75FFC2046FFF709FCC8
:103FC000002104F1D000FFF757FC04F1D000FFF707
:103FD00000FC9DED020ABDEEC00A10EE101A04F1BD
:103FE0006800FFF749FC04F16800FFF7F2FB9DED64
:103FF000020AB1EE400ABDEEC00A10EE101A04F536
:104000009C70FFF739FC04F59C70FFF7E2FB36E08B
:104010009DED000AB5EEC00AF1EE10FA2FD19DED2C
:10402000010AB5EEC00AF1EE10FA28D19DED020AA0
:10403000B5EEC00AF1EE10FA21D100212046FFF7BB
:104040001BFC2046FFF7C5FB002104F1D000FFF761
:1040500013FC04F1D000FFF7BCFB002104F1680061
:10406000FFF70AFC04F16800FFF7B3FB002104F539
:104070009C70FFF701FC04F59C70FFF7AAFB05B0EC
:1040800030BD000010B5A6B004463D22894914A8F1
:10409000FCF7C9F8874890F83D008DF88D008548F9
:1040A00090F83E008DF88E00824890F83F108DF811
:1040B0008F1090F840108DF8901090F841108DF806
:1040C000911090F842008DF892007A4890F84310D1
:1040D0008DF8931090F844108DF8941090F84510D6
:1040E0008DF8951090F846008DF8960072482021C2
:1040F0001023CDE91030CDE9121000203C2217A981
:104100000F906846FCF78FF8204614A90EC9FFF7F8
:104110001BFB3D22674914A8FCF785F8654890F819
:104120003D008DF88D00634890F83E008DF88E00BC
:10413000604890F83F108DF88F1090F840108DF87F
:10414000901090F841108DF8911090F842008DF881
:104150009200584890F843108DF8931090F844104E
:104160008DF8941090F845108DF8951090F8460051
:104170008DF89600514820211023CDE91030CDE96B
:10418000121004203C2217A90F906846FCF74BF848
:1041900004F1680014A90EC9FFF7D6FA3D2245497B
:1041A00014A8FCF740F8434890F83D008DF88D00C6
:1041B000404890F83E008DF88E003E4890F83F1041
:1041C0008DF88F1090F840108DF8901090F84110F5
:1041D0008DF8911090F842008DF89200354890F8D3
:1041E00043108DF8931090F844108DF8941090F8C7
:1041F00045108DF8951090F846008DF896003048DF
:1042000004210223CDE91030CDE9121008203C2210
:1042100017A90F906846FCF706F804F1D00014A91E
:104220000EC9FFF791FA3D22224914A8FBF7FBFFC4
:10423000204890F83D008DF88D001E4890F83E0013
:104240008DF88E001B4890F83F108DF88F1090F875
:1042500040108DF8901090F841108DF8911090F862
:1042600042008DF89200134890F843108DF8931097
:1042700090F844108DF8941090F845108DF8951032
:1042800090F846008DF896000C4880218315CDE902
:104290001030CDE912100C203C2217A90F9068466F
:1042A000FBF7C1FF04F59C7014A90EC9FFF74CFA87
:1042B00026B010BD34040020000002400008024077
:1042C0000004024030B50468246824F480240568A2
:1042D0002C60046863608468402C04D10468A26088
:1042E0000468E16003E00468A1600468E26030BD36
:1042F000014600208A6A8B69CBB932B1012A0DD000
:10430000022A03D0032A10D10EE000BFCB6A03F0CB
:104310008073B3F1807F00D1012007E0CB6AB3F155
:10432000C07F00D1012001E000E000BF34E08B69D4
:10433000B3F5005F1AD132B1012A07D0022A03D0A7
:10434000032A11D10AE000BF01200EE0CB6A03F07E
:104350008073B3F1807F00D1012006E0CB6AB3F116
:10436000C07F00D1012000E000BF15E032B1012A7A
:1043700005D0022A04D0032A0CD103E000BF00BFFD
:10438000012008E0CB6A03F08073B3F1807F00D195
:10439000012000E000BF00BF704700000146087820
:1043A00010381823B0FBF3F20848805CC865032A74
:1043B00005D908686FF30900001D886503E00868E7
:1043C0006FF309008865886D7047000098600008E9
:1043D00030B5056A25F001050562026A4368846903
:1043E00024F0700424F003040D682C4322F0020230
:1043F0008D682A43104DA84200D103E00F4DA8421A
:1044000006D100BF22F00802CD682A4322F0040240
:10441000094DA84202D0094DA84207D123F4807368
:1044200023F400734D692B438D692B4343608461F2
:104430004D684563026230BD000001400004014048
:1044400030B5056A25F480750562026A4368C4695F
:1044500024F0700424F003040D682C4322F400724D
:104460008D6842EA0522124DA84200D103E0114DA9
:10447000A84207D100BF22F40062CD6842EA0522BB
:1044800022F480620A4DA84202D00A4DA84209D106
:1044900023F4805323F400534D6943EA05138D69D7
:1044A00043EA05134360C4614D68C563026230BDD1
:1044B000000001400004014030B5056A25F4805534
:1044C0000562036A4468C26922F4E04222F4407241
:1044D0000D6842EA052223F400538D6843EA053350
:1044E000084DA84202D0084DA84204D124F48044CB
:1044F0004D6944EA85144460C2614D6805640362F5
:1045000030BD0000000001400004014070B50C46C1
:104510001546066A26F0100606628169026A21F4D1
:10452000407141EA052121F470414FF4704606EADA
:104530000336314322F0A002A02606EA04163243D5
:104540008161026270BD70B50C461546066A26F49C
:1045500080760662C169026A21F00301294321F0D5
:10456000F001F02606EA0316314322F420624FF4EC
:10457000206606EA04263243C161026270BD70B54E
:104580000C461546066A26F480560662C169026A20
:1045900021F4407141EA052121F470414FF4704645
:1045A00006EA0336314322F420424FF4204606EA5D
:1045B00004363243C161026270BD0A46816821F04F
:1045C000700142F0070319438160704730B50B4614
:1045D0001446026A056A25F001050562816921F029
:1045E000F00141EA041122F00A021A4381610262D9
:1045F00030BD30B50B461446056A25F0100505623E
:104600008169026A21F4704141EA043122F0A0027A
:1046100042EA03128161026230BD70B50646002590
:10462000B46B20684069C0F3C01594F83D002128A0
:1046300005D125B10020E084204600F026FA20684C
:104640004069C0F3801594F83E00222805D125B1B9
:104650000020E085204600F0E2F9206C40F01000D8
:1046600020642046FDF7D8FC70BD00002DE9F84F0E
:1046700004462068006920F44050E168084321683E
:1046800008612169A068084361690843E16908433A
:1046900000902068C06849F20C6188430099084383
:1046A0002168C8602068406920F44070A16908430F
:1046B0002168486176492068884203D0754920689E
:1046C000884203D1FCF746FB814602E0FCF732FB4F
:1046D0008146E069B0F5004F6CD102206168A0FB13
:1046E000015003461920A9FB007001462A463846AE
:1046F000FBF768FD6421B0FBF1F04FEA001A0220DD
:104700006168A0FB01510B461920A9FB00712A46E4
:104710003846FBF757FD834602206168A0FB015035
:1047200003461920A9FB00712A463846FBF74AFDCB
:104730006421B0FBF1F000EBC00101EB0010ABEB2A
:104740008000322101EBC0006421B0FBF1F000F0E9
:10475000F8000AEB400A02206168A0FB0150034602
:104760001920A9FB007001462A463846FBF72AFDAE
:10477000834602206168A0FB015003461920A9FB73
:1047800000712A463846FBF71DFD6421B0FBF1F0AD
:1047900000EBC00101EB0010ABEB8000322101EB1C
:1047A000C0006421B0FBF1F000F007005044216824
:1047B00088606AE004206168A0FB0150034619206C
:1047C000A9FB007001462A463846FBF7FBFC8246EF
:1047D00004206168A0FB015003461920A9FB00706A
:1047E00001462A463846FBF7EDFC6421B0FBF1F0A8
:1047F00000EBC00101EB0010AAEB8000322101EBBD
:1048000000106421B0FBF1F000F0F00A04206168B0
:10481000A0FB017003461920A9FB00513A46284627
:10482000FBF7D0FC6421B0FBF1F00AEB001A042086
:104830006168A0FB01510B461920A9FB00712A46B3
:104840003846FBF7BFFC834604206168A0FB01509B
:1048500003461920A9FB007001462A463846FBF79B
:10486000B1FC6421B0FBF1F000EBC00101EB0010E2
:10487000ABEB8000322101EB00106421B0FBF1F0C2
:1048800000F00F00504421688860BDE8F88F0000F8
:104890000010014000140140F8B5044694F83E00B1
:1048A000222873D1A068B0F5805F0CD1206950B97F
:1048B0000025A66A20684068C0F308003080A06A1E
:1048C000801CA06215E0A56A0026A068B0F5805F94
:1048D00003D0A06828B9206918B9206840682870FA
:1048E00004E02068406800F07F002870A06A401C47
:1048F000A062E08D401E80B2E085002844D120688F
:10490000C06820F020002168C8602068C06820F4DA
:1049100080702168C8602068406920F0010021682B
:104920004861202084F83E00206B012826D1002019
:10493000206300BF00BF21680C3151E8001F21F047
:10494000100021680C3141E80002002AF3D100BFB9
:104950002068006800F0100010280AD100BF002075
:10496000009020680068009020684068009000BFB8
:1049700000BFA18D2046FDF74EFB02E02046FDF76B
:104980000CFE0020F8BD01E00020FBE70220F9E763
:10499000014691F83D00212828D18868B0F5805F54
:1049A0000BD1086948B90A6A1088C0F308000B687F
:1049B0005860086A801C086205E00B6A581C08628F
:1049C00018780B685860C88C401E80B2C88458B9EB
:1049D0000868C06820F080000B68D8600868C0686C
:1049E00040F040000B68D860002070470220FCE7D0
:1049F00070B50546AC6B206B012805D1A08D410830
:104A00002046FDF708FB02E02046FDF7C7FD70BD1C
:104A100070B50446A56B2846FDF719FE70BD00BFB2
:104A200000BF02680C3252E8002F22F49071026835
:104A30000C3242E80013002BF3D100BF00BF00BFCF
:104A40000268143252E8002F22F001010268143289
:104A500042E80013002BF3D100BF016B01290ED1F6
:104A600000BF00BF02680C3252E8002F22F0100194
:104A700002680C3242E80013002BF3D100BF202162
:104A800080F83E1000210163704700BF00BF02683C
:104A90000C3252E8002F22F0C00102680C3242E8CA
:104AA0000013002BF3D100BF202180F83D10704788
:104AB00070B50546AC6B2868006800F4807000286B
:104AC00042D1E08500BF00BF21680C3151E8001FD2
:104AD00021F4807021680C3141E80002002AF3D1F2
:104AE00000BF00BF00BF2168143151E8001F21F052
:104AF00001002168143141E80002002AF3D100BF0F
:104B000000BF00BF2168143151E8001F21F04000B0
:104B10002168143141E80002002AF3D100BF2020AF
:104B200084F83E00206B01280ED100BF00BF216831
:104B30000C3151E8001F21F0100021680C3141E8D0
:104B40000002002AF3D100BF206B012804D1A18DFF
:104B50002046FDF760FA02E02046FDF71EFD70BD1D
:104B600010B504462068C06820F040002168C86085
:104B7000202084F83D002046FDF768FD002010BD90
:104B800070B50546AC6B0020E085E0842046FDF75B
:104B900043FA70BD70B50546AC6B2868006800F438
:104BA0008070F8B90020E08400BF00BF2168143194
:104BB00051E8001F21F080002168143141E8000213
:104BC000002AF3D100BF00BF00BF21680C3151E8BB
:104BD000001F41F0400021680C3141E80002002A2A
:104BE000F3D102E02046FDF731FD70BD10B500287D
:104BF00004DB0A07130E054A135406E00A07140ED5
:104C0000034A00F00F031B1FD45410BD00E400E062
:104C100018ED00E002480068C0F302207047000071
:104C20000CED00E02DE9F0411C4617460E008046D1
:104C300007D0054602E02846B0473D442046641EA2
:104C4000F9D24046BDE8F08102E008C8121F08C151
:104C5000002AFAD170477047002001E001C1121FFD
:104C6000002AFBD17047000010B5104C04236822C5
:104C70000F492046FFF7D6FF044600F5C0700D4BE4
:104C80000ECB68300EC00C4C022368220849204627
:104C9000FFF7C8FF044600F58070084BD3E90021F8
:104CA0009B68C0E90713826110BD0000FC00002072
:104CB0007D38000880600008F00200208C60000849
:104CC00000B5D5B0FEA30FCB549351AB07C3FBF790
:104CD0009FFEFEF7A5FBFDF7E1FCFDF7BBFCFDF732
:104CE000EDFDFDF755FEFDF7ADFEFDF7E1FEFDF72D
:104CF00003FFFDF761FFFDF743FF0021F448FCF7D8
:104D00009BFDF448D0E9001280684F924E9150907C
:104D1000F0490C31D1E9000289684C924D914B90D9
:104D2000EC4A183207CA48AB07C3EA4A243207CA1A
:104D300045AB07C3E74A303207CA42AB07C3E54A6F
:104D40003C3207CA3FAB07C3E24A4832D2E90010FF
:104D50009268CDE93D023C91DE4A543207CA39AB34
:104D600007C3DC4A603207CA36AB07C3D94A6C3284
:104D7000D2E900109268CDE934023391D54A7832F5
:104D8000D2E900109268CDE931023091D14A8432E3
:104D9000D2E900109268CDE92E022D91CD4A9032D1
:104DA000D2E900109268CDE92B022A91C94A9C32BF
:104DB000D2E900109268CDE928022791C54AA832AD
:104DC000D2E900109268CDE925022491C14AB4329B
:104DD000D2E900109268CDE922022191BD4AC03289
:104DE000D2E900109268CDE91F021E91B94ACC3277
:104DF000D2E900109268CDE91C021B91B54AD83265
:104E0000D2E900109268CDE919021891B14AE43252
:104E1000D2E900109268CDE9160215910020129097
:104E200013901490AB4AF03207CA0FAB07C3A94ADC
:104E3000FC3207CA0CAB07C3A74A07CA09AB07C3B2
:104E4000A54A0C32D2E900109268CDE9070206911A
:104E5000A14A1832D2E900109268CDE90402039108
:104E60009D4A2432D2E900109268CDE901020091F6
:104E70009A48FFF707F99A48FEF7D4FB4FF480628F
:104E800098499948FEF71CFD4FF4006295499648F1
:104E90000830FEF715FD4FF48052924992481030C9
:104EA000FEF70EFD4FF400528E498F481830FEF782
:104EB00007FD42F21070FBF77DFC44F63820FEF748
:104EC00009FB01E0FEF7FEF8884880680128F9D167
:104ED0008648C0680128F5D19DED141ADDED130A4E
:104EE0009DED120A7D48FEF7EFFC4FF47A70FBF758
:104EF00061FC102251A97E48FDF752FB9DED4D1A31
:104F0000DDED4C0A9DED4B0A7448FEF7DDFC40F6E2
:104F1000AC50FBF74FFC9DED4D1ADDED4C0A9DEDBD
:104F20004B0A6E48FEF7D0FC4FF47A70FBF742FC58
:104F30007048407830286FD19DED471ADDED460A64
:104F40009DED450A6548FEF7BFFC4FF4C870FBF7BE
:104F500031FC9DED141ADDED130A9DED120A5F4838
:104F6000FEF7B2FCFEF772F90DE09DED441ADDED9F
:104F7000430A9DED420A5948FEF7A6FC1420FBF7B0
:104F800019FCFEF763F95C4880680128EDD15A48A6
:104F9000C0680128E9D19DED3E1ADDED3D0A9DED89
:104FA0003C0A4E48FEF790FC4FF47A70FBF702FC87
:104FB0009DED141ADDED130A9DED120A4748FEF728
:104FC00083FC4FF4FA70FBF7F5FBFEF73FF901E0C5
:104FD000FEF778F8454880680128F9D14348C06851
:104FE0000128F5D19DED141ADDED130A9DED120A8D
:104FF0003A48FEF769FC40F6C410FBF7DBFB9DED79
:105000004D1ADDED4C0A9DED4B0A3448FEF75CFC71
:1050100040F6AC50FBF7CEFB9DED441ADDED430AA4
:105020009DED420A2D48FEF74FFC4FF46170FBF7EF
:10503000C1FB9DED141ADDED130A9DED120A274800
:10504000FEF742FC9DED021ADDED010A9DED000A1E
:105050002348FEF7B9FA41F29410FBF7ABFB9DED44
:10506000141ADDED130A9DED120A1D48FEF7ACFA85
:1050700001211D480830FEF711FC01211A481830A3
:10508000FEF70CFC002118481030FEF707FC41F237
:105090008830FBF78FFB9DED081ADDED070A9DEDCB
:1050A000060A0F48FEF790FA4FF46160FBF782FBA7
:1050B0009DED141ADDED130A9DED120A08481DE05E
:1050C00002010102B80B00000000000000000334E0
:1050D00054050020485F000850600008FC000020D4
:1050E000F0020020001002401404002004070020F9
:1050F0009C050020E406002040070020FEF764FA2B
:105100009DED471ADDED460A9DED450AFE48FEF786
:10511000DBFB4FF4FA70FBF74DFB9DED141ADDED50
:10512000130A9DED120AF848FEF7CEFBFEF78EF843
:105130000DE09DED441ADDED430A9DED420AF24873
:10514000FEF7C2FB1420FBF735FBFEF77FF8EF48B4
:1051500080680128EDD1ED48C0680128E9D1FEF74B
:1051600075F801E0FDF7AEFFE94880680128F9D144
:10517000E748C0680128F5D19DED141ADDED130A4A
:105180009DED120AE048FEF79FFB4FF4FA70FBF723
:1051900011FB9DED051ADDED040A9DED030ADD48C6
:1051A000FEF712FA4FF4FA50FBF704FB9DED141AC8
:1051B000DDED130A9DED120AD648FEF705FA01212E
:1051C000D548FEF76BFB0021D3480838FEF766FB95
:1051D0009DED0B1ADDED0A0A9DED090ACD48FEF79B
:1051E000F3F940F6B830FBF7E5FA9DED141ADDED62
:1051F000130A9DED120AC748FEF7E6F90021C648DA
:105200001038FEF74BFB40F2DC50FBF7D3FA9DED74
:105210004A1ADDED490A9DED480ABB48FEF754FBEA
:1052200041F25C20FBF7C6FA9DED141ADDED130A7E
:105230009DED120AB448FEF747FB4FF4FA60FBF706
:10524000B9FA0121B4481038FEF728FB40F2DC50CF
:10525000FBF7B0FA0021B0481038FEF71FFB40F210
:10526000DC50FBF7A7FA9DED471ADDED460A9DEDF0
:10527000450AA548FEF728FB4FF4C870FBF79AFAD9
:105280009DED141ADDED130A9DED120A9E48FEF7FE
:105290001BFBFDF7DBFF0DE09DED441ADDED430A3E
:1052A0009DED420A9848FEF70FFB1420FBF782FAA7
:1052B000FDF7CCFF994880680128EDD19748C06878
:1052C0000128E9D19DED3E1ADDED3D0A9DED3C0A38
:1052D0008D48FEF7F9FA4FF49670FBF76BFAFDF77D
:1052E000B5FF01E0FDF7EEFE894880680128F9D19D
:1052F0008748C0680128F5D19DED141ADDED130A29
:105300009DED120A8048FEF7DFFA4FF47A70FBF742
:1053100051FA9DED4D1ADDED4C0A9DED4B0A7A4890
:10532000FEF7D2FA40F6AC50FBF744FA9DED141AA2
:10533000DDED130A9DED120A7348FEF7C5FA4FF42E
:10534000FA60FBF737FA9DED441ADDED430A9DED57
:10535000420A6D48FEF7B8FA4FF46170FBF72AFA7B
:105360009DED141ADDED130A9DED120A6648FEF755
:10537000ABFA4FF4FA60FBF71DFA9DED021ADDED72
:10538000010A9DED000A6348FEF71EF941F29410F0
:10539000FBF710FA9DED141ADDED130A9DED120ACC
:1053A0005C48FEF711F901215B480838FEF776FAF0
:1053B000012159480830FEF771FA00215648FEF7DE
:1053C0006DFA41F28830FBF7F5F99DED081ADDED35
:1053D000070A9DED060A4F48FEF7F6F840F6B8308A
:1053E000FBF7E8F99DED141ADDED130A9DED120AA5
:1053F0004848FEF7E9F89DED471ADDED460A9DEDB8
:10540000450A4148FEF760FA4FF4C870FBF7D2F93D
:105410009DED141ADDED130A9DED120A3A48FEF7D0
:1054200053FAFDF713FF0DE09DED441ADDED430A3D
:105430009DED420A3448FEF747FA1420FBF7BAF90B
:10544000FDF704FF314880680128EDD12F48C0687E
:105450000128E9D19DED3E1ADDED3D0A9DED3C0AA6
:105460002948FEF731FA4FF49670FBF7A3F99DED4A
:10547000141ADDED130A9DED120A2348FEF724FAF3
:105480004FF4FA70FBF796F9FDF7E0FE0DE09DEDA5
:105490003B1ADDED3A0A9DED390A1B48FEF714FA76
:1054A0000A20FBF787F9FDF7D1FE1948806801282B
:1054B000EDD11748C0680128E9D19DED3E1ADDED18
:1054C0003D0A9DED3C0A1048FEF7FEF91420FBF75B
:1054D00071F99DED141ADDED130A9DED120A0A48CB
:1054E000FEF7F2F94FF47A70FBF764F99DED051AB7
:1054F000DDED040A9DED030A0648FEF765F84FF45A
:10550000FA50FBF757F90BE0FC00002040070020A1
:1055100018070020F0020020240400202C0700209F
:105520009DED141ADDED130A9DED120AFE48FEF7FB
:105530004BF80121FD48FEF7B1F90021FB4808387E
:10554000FEF7ACF99DED0B1ADDED0A0A9DED090A97
:10555000F548FEF739F840F6B830FBF72BF99DED2A
:10556000141ADDED130A9DED120AEF48FEF72CF830
:105570000021EE481038FEF791F940F2DC50FBF7BD
:1055800019F99DED4A1ADDED490A9DED480AE848F2
:10559000FEF79AF941F25C20FBF70CF99DED141A25
:1055A000DDED130A9DED120AE148FEF78DF94FF487
:1055B000FA60FBF7FFF89DED2F1ADDED2E0A9DED49
:1055C0002D0ADB48FEF780F94FF49170FBF7F2F8F3
:1055D0009DED141ADDED130A9DED120AD448FEF775
:1055E00073F94FF4FA70FBF7E5F80121CF48103852
:1055F000FEF754F940F2DC50FBF7DCF80021CB4811
:105600001038FEF74BF940F2DC50FBF7D3F89DED74
:10561000471ADDED460A9DED450AC548FEF754F9E7
:105620004FF44870FBF7C6F89DED141ADDED130A30
:105630009DED120ABE48FEF747F9FDF707FE0DE0A3
:105640009DED441ADDED430A9DED420AB848FEF790
:105650003BF91420FBF7AEF8FDF7F8FDB54880687C
:105660000128EDD1B348C0680128E9D19DED2C1A7D
:10567000DDED2B0A9DED2A0AAD48FEF725F941F232
:105680005040FBF797F8FDF767FF9DED0B1ADDED36
:105690000A0A9DED090AA448FDF796FF40F2DC5086
:1056A000FBF788F8102251A9A348FCF779FF9DED7C
:1056B000501ADDED4F0A9DED4E0A9D48FEF704F9A4
:1056C0004FF47A70FBF776F89DED0E1ADDED0D0ABA
:1056D0009DED0C0A9648FEF7F7F84FF4FA60FBF7D9
:1056E00069F89648407831287DD19DED021ADDEDAC
:1056F000010A9DED000A8C48FDF766FF41F27070CB
:10570000FBF758F89DED141ADDED130A9DED120A12
:105710008548FDF759FF012184480838FEF7BEF897
:1057200001218248FEF7BAF8002180480830FEF7D0
:10573000B5F841F28830FBF73DF89DED081ADDED34
:10574000070A9DED060A7848FDF73EFF4FF4FA6020
:10575000FBF730F89DED141ADDED130A9DED120AEA
:105760007148FDF731FF9DED471ADDED460A9DEDCD
:10577000450A6F48FEF7A8F84FF47A70FBF71AF85D
:105780009DED141ADDED130A9DED120A6848FEF72F
:105790009BF89DED2C1ADDED2B0A9DED2A0A64483D
:1057A000FEF792F841F21850FBF704F8FDF7F6FD0A
:1057B000FDF7D2FE9DED501ADDED4F0A9DED4E0A2C
:1057C0005B48FEF781F840F2DC50FAF7F3FF9DEDFD
:1057D000141ADDED130A9DED120A5548FEF774F810
:1057E0009DED051A00E08EE0DDED040A9DED030A53
:1057F0004D48FDF7E9FE41F65830FAF7DBFF9DED25
:10580000141ADDED130A9DED120A4748FDF7DCFE80
:10581000012146480830FEF741F800214348083886
:10582000FEF73CF89DED0B1ADDED0A0A9DED090A25
:105830003D48FDF7C9FE40F6B830FAF7BBFF9DEDD5
:10584000141ADDED130A9DED120A3748FDF7BCFE70
:10585000002136481038FEF721F840F2DC50FAF704
:10586000A9FF9DED0E1ADDED0D0A9DED0C0A3048E5
:10587000FEF72AF8C820FAF79DFF9DED141ADDED1A
:10588000130A9DED120A2A48FEF71EF89DED2F1A05
:10589000DDED2E0A9DED2D0A2548FEF715F84FF493
:1058A0009670FAF787FF012120481038FDF7F6FFC0
:1058B00040F2DC50FAF77EFF00211C481038FDF75B
:1058C000EDFF40F2DC50FAF775FF9DED471ADDED74
:1058D000460A9DED450A1648FDF7F6FF40F24C409A
:1058E000FAF768FF9DED141ADDED130A9DED120A1B
:1058F0000F48FDF7E9FF41F25040FAF75BFFFDF773
:105900004DFDFDF729FE9DED471ADDED460A9DEDA3
:10591000450A0748FDF7D8FF4FF47A70FAF74AFFB7
:105920009DED141A0CE00000F00200202404002079
:10593000FC000020400700209C050020E406002019
:10594000DDED130A9DED120AFE48FDF7BDFF9DED4A
:105950003E1ADDED3D0A9DED3C0AFA48FDF7B4FF25
:105960004FF49670FAF726FFFDF770FC01E0FDF7A3
:105970000BFCF54880680128F9D1F348C06801287C
:10598000F5D19DED141ADDED130A9DED120AED48D7
:10599000FDF79AFF4FF4FA60FAF70CFF102251A9B5
:1059A000EA48FCF7FDFD9DED501ADDED4F0A9DED37
:1059B0004E0AE448FDF788FF4FF47A70FAF7FAFED2
:1059C0009DED0E1ADDED0D0A9DED0C0ADD48FDF78B
:1059D0007BFF4FF4FA60FAF7EDFEDD48407831289E
:1059E00074D19DED021ADDED010A9DED000AD94842
:1059F000FDF7EAFD41F27070FAF7DCFE9DED141A36
:105A0000DDED130A9DED120AD248FDF7DDFD0121FF
:105A1000D148FDF743FF0121CF480830FDF73EFF95
:105A20000021CD481030FDF739FF41F28830FAF7F8
:105A3000C1FE9DED081ADDED070A9DED060AC54879
:105A4000FDF7C2FD4FF4FA60FAF7B4FE9DED141AAB
:105A5000DDED130A9DED120ABE48FDF7B5FD9DED83
:105A6000471ADDED460A9DED450AB648FDF72CFFC5
:105A70004FF47A70FAF79EFE9DED141ADDED130ACD
:105A80009DED120AAF48FDF71FFF9DED2C1ADDEDCD
:105A90002B0A9DED2A0AAB48FDF716FF41F218507C
:105AA000FAF788FEFDF77AFCFDF756FD9DED351AF5
:105AB000DDED340A9DED330AA248FDF705FF4FF4F2
:105AC0009670FAF777FEFDF7C1FB02E0C7E0FDF73D
:105AD0005BFB9D4880680128F9D19B48C06801287C
